{
  "contractName": "PriceOracle",
  "abi": [
    {
      "inputs": [],
      "stateMutability": "nonpayable",
      "type": "constructor"
    },
    {
      "anonymous": false,
      "inputs": [
        {
          "indexed": true,
          "internalType": "address",
          "name": "previousOwner",
          "type": "address"
        },
        {
          "indexed": true,
          "internalType": "address",
          "name": "newOwner",
          "type": "address"
        }
      ],
      "name": "OwnershipTransferred",
      "type": "event"
    },
    {
      "anonymous": false,
      "inputs": [
        {
          "indexed": true,
          "internalType": "bytes32",
          "name": "id",
          "type": "bytes32"
        },
        {
          "indexed": true,
          "internalType": "bytes32",
          "name": "oracleCallID",
          "type": "bytes32"
        },
        {
          "indexed": false,
          "internalType": "uint256",
          "name": "date",
          "type": "uint256"
        },
        {
          "indexed": false,
          "internalType": "int256",
          "name": "value",
          "type": "int256"
        }
      ],
      "name": "ValueUpdated",
      "type": "event"
    },
    {
      "inputs": [],
      "name": "iexecproxy",
      "outputs": [
        {
          "internalType": "contract IexecInterfaceToken",
          "name": "",
          "type": "address"
        }
      ],
      "stateMutability": "view",
      "type": "function"
    },
    {
      "inputs": [],
      "name": "m_authorizedApp",
      "outputs": [
        {
          "internalType": "address",
          "name": "",
          "type": "address"
        }
      ],
      "stateMutability": "view",
      "type": "function"
    },
    {
      "inputs": [],
      "name": "m_authorizedDataset",
      "outputs": [
        {
          "internalType": "address",
          "name": "",
          "type": "address"
        }
      ],
      "stateMutability": "view",
      "type": "function"
    },
    {
      "inputs": [],
      "name": "m_authorizedWorkerpool",
      "outputs": [
        {
          "internalType": "address",
          "name": "",
          "type": "address"
        }
      ],
      "stateMutability": "view",
      "type": "function"
    },
    {
      "inputs": [],
      "name": "m_requiredtag",
      "outputs": [
        {
          "internalType": "bytes32",
          "name": "",
          "type": "bytes32"
        }
      ],
      "stateMutability": "view",
      "type": "function"
    },
    {
      "inputs": [],
      "name": "m_requiredtrust",
      "outputs": [
        {
          "internalType": "uint256",
          "name": "",
          "type": "uint256"
        }
      ],
      "stateMutability": "view",
      "type": "function"
    },
    {
      "inputs": [],
      "name": "owner",
      "outputs": [
        {
          "internalType": "address",
          "name": "",
          "type": "address"
        }
      ],
      "stateMutability": "view",
      "type": "function"
    },
    {
      "inputs": [],
      "name": "renounceOwnership",
      "outputs": [],
      "stateMutability": "nonpayable",
      "type": "function"
    },
    {
      "inputs": [
        {
          "internalType": "address",
          "name": "newOwner",
          "type": "address"
        }
      ],
      "name": "transferOwnership",
      "outputs": [],
      "stateMutability": "nonpayable",
      "type": "function"
    },
    {
      "inputs": [
        {
          "internalType": "bytes32",
          "name": "",
          "type": "bytes32"
        }
      ],
      "name": "values",
      "outputs": [
        {
          "internalType": "bytes32",
          "name": "oracleCallID",
          "type": "bytes32"
        },
        {
          "internalType": "uint256",
          "name": "date",
          "type": "uint256"
        },
        {
          "internalType": "int256",
          "name": "value",
          "type": "int256"
        },
        {
          "internalType": "string",
          "name": "details",
          "type": "string"
        }
      ],
      "stateMutability": "view",
      "type": "function"
    },
    {
      "inputs": [
        {
          "internalType": "address",
          "name": "_authorizedApp",
          "type": "address"
        },
        {
          "internalType": "address",
          "name": "_authorizedDataset",
          "type": "address"
        },
        {
          "internalType": "address",
          "name": "_authorizedWorkerpool",
          "type": "address"
        },
        {
          "internalType": "bytes32",
          "name": "_requiredtag",
          "type": "bytes32"
        },
        {
          "internalType": "uint256",
          "name": "_requiredtrust",
          "type": "uint256"
        }
      ],
      "name": "updateEnv",
      "outputs": [],
      "stateMutability": "nonpayable",
      "type": "function"
    },
    {
      "inputs": [
        {
          "internalType": "bytes32",
          "name": "_callID",
          "type": "bytes32"
        },
        {
          "internalType": "bytes",
          "name": "",
          "type": "bytes"
        }
      ],
      "name": "receiveResult",
      "outputs": [],
      "stateMutability": "nonpayable",
      "type": "function"
    },
    {
      "inputs": [
        {
          "internalType": "bytes32",
          "name": "_id",
          "type": "bytes32"
        }
      ],
      "name": "valueFor",
      "outputs": [
        {
          "internalType": "int256",
          "name": "",
          "type": "int256"
        },
        {
          "internalType": "uint256",
          "name": "",
          "type": "uint256"
        },
        {
          "internalType": "uint256",
          "name": "",
          "type": "uint256"
        }
      ],
      "stateMutability": "view",
      "type": "function"
    }
  ],
  "bytecode": "0x60806040523480156200001157600080fd5b5060008062000029816001600160e01b036200013916565b156200005057600080546001600160a01b0319166001600160a01b038316179055620000cd565b62000078733eca1b216a7df1c7689aeb259ffb83adfb894e7f6001600160e01b036200013916565b15620000aa57600080546001600160a01b031916733eca1b216a7df1c7689aeb259ffb83adfb894e7f179055620000cd565b60405162461bcd60e51b8152600401620000c49062000149565b60405180910390fd5b5060009050620000e56001600160e01b036200014516565b600680546001600160a01b0319166001600160a01b038316908117909155604051919250906000907f8be0079c531659141344cd1fd0a4f28419497f9722a3daafe3b4186f6b6457e0908290a35062000180565b3b63ffffffff16151590565b3390565b6020808252601a908201527f696e76616c69642d696578656370726f78792d61646472657373000000000000604082015260600190565b6113b980620001906000396000f3fe608060405234801561001057600080fd5b50600436106100cf5760003560e01c8063ca2ef3c41161008c578063f075b66611610066578063f075b66614610172578063f2fde38b1461017a578063f6eba5471461018d578063f78eea8314610195576100cf565b8063ca2ef3c414610132578063ccc2195f1461013a578063e73482a21461015d576100cf565b806318a4b2d0146100d4578063482fb13e146100e95780635dd8085514610107578063715018a61461011a57806378dd4ae5146101225780638da5cb5b1461012a575b600080fd5b6100e76100e2366004610dbd565b6101b7565b005b6100f1610209565b6040516100fe91906111c7565b60405180910390f35b6100e7610115366004610e4f565b610218565b6100e76102fc565b6100f161037b565b6100f161038a565b6100f161039a565b61014d610148366004610e37565b6103a9565b6040516100fe94939291906111f2565b610165610471565b6040516100fe91906111db565b6100f1610477565b6100e7610188366004610d9a565b610486565b61016561053d565b6101a86101a3366004610e37565b610543565b6040516100fe93929190611221565b6101bf610590565b6006546001600160a01b039081169116146101f55760405162461bcd60e51b81526004016101ec90611290565b60405180910390fd5b6102028585858585610594565b5050505050565b6001546001600160a01b031681565b600060606000610227866105dd565b80602001905181019061023a919061114d565b925092509250600082805190602001209050836007600083815260200190815260200160002060010154106102815760405162461bcd60e51b81526004016101ec906112c5565b6000818152600760209081526040909120888155600181018690556002810184905584516102b792600390920191860190610a5c565b5086817fa23127bfde051e9bb312bbadb2785a0b5d8a4af74ae6c1dc1bb62c5e24dd583286856040516102eb9291906111e4565b60405180910390a350505050505050565b610304610590565b6006546001600160a01b039081169116146103315760405162461bcd60e51b81526004016101ec90611290565b6006546040516000916001600160a01b0316907f8be0079c531659141344cd1fd0a4f28419497f9722a3daafe3b4186f6b6457e0908390a3600680546001600160a01b0319169055565b6002546001600160a01b031681565b6006546001600160a01b03165b90565b6003546001600160a01b031681565b6007602052806000526040600020600091509050806000015490806001015490806002015490806003018054600181600116156101000203166002900480601f0160208091040260200160405190810160405280929190818152602001828054600181600116156101000203166002900480156104675780601f1061043c57610100808354040283529160200191610467565b820191906000526020600020905b81548152906001019060200180831161044a57829003601f168201915b5050505050905084565b60055481565b6000546001600160a01b031681565b61048e610590565b6006546001600160a01b039081169116146104bb5760405162461bcd60e51b81526004016101ec90611290565b6001600160a01b0381166104e15760405162461bcd60e51b81526004016101ec9061124a565b6006546040516001600160a01b038084169216907f8be0079c531659141344cd1fd0a4f28419497f9722a3daafe3b4186f6b6457e090600090a3600680546001600160a01b0319166001600160a01b0392909216919091179055565b60045481565b6000818152600760205260408120548190819061056a575060009150819050610194610589565b5050506000818152600760205260409020600281015460019091015460c85b9193909250565b3390565b600180546001600160a01b03199081166001600160a01b039788161790915560028054821695871695909517909455600380549094169290941691909117909155600455600555565b6060600060606105ec84610618565b915091508181906106105760405162461bcd60e51b81526004016101ec9190611237565b509392505050565b60006060610624610ada565b60005460405163adccf0d560e01b81526001600160a01b039091169063adccf0d5906106549087906004016111db565b60006040518083038186803b15801561066c57600080fd5b505afa158015610680573d6000803e3d6000fd5b505050506040513d6000823e601f3d908101601f191682016040526106a89190810190611004565b90506106b2610b5a565b6000546020830151604051635ba430d960e11b81526001600160a01b039092169163b74861b2916106e5916004016111db565b60006040518083038186803b1580156106fd57600080fd5b505afa158015610711573d6000803e3d6000fd5b505050506040513d6000823e601f3d908101601f191682016040526107399190810190610ec4565b905060038251600481111561074a57fe5b1461078957600060405180604001604052806014815260200173726573756c742d6e6f742d617661696c61626c6560601b8152509350935050506109b1565b6101008101516001600160a01b031630146107c4576000604051806060016040528060218152602001611363602191399350935050506109b1565b6001546001600160a01b0316158015906107f657506001548151516107f4916001600160a01b03169060046109b6565b155b156108315760006040518060400160405280601081526020016f0756e617574686f72697a65642d6170760841b8152509350935050506109b1565b6002546001600160a01b0316158015906108665750600254602082015151610864916001600160a01b03169060046109b6565b155b156108a5576000604051806040016040528060148152602001731d5b985d5d1a1bdc9a5e99590b59185d185cd95d60621b8152509350935050506109b1565b6003546001600160a01b0316158015906108da57506003546040820151516108d8916001600160a01b03169060046109b6565b155b156109225760006040518060400160405280601781526020017f756e617574686f72697a65642d776f726b6572706f6f6c0000000000000000008152509350935050506109b1565b60a0810151600454901916156109635760006040518060400160405280600b81526020016a696e76616c69642d74616760a81b8152509350935050506109b1565b806060015160055411156109a45760006040518060400160405280600d81526020016c1a5b9d985b1a590b5d1c9d5cdd609a1b8152509350935050506109b1565b506101c001516001925090505b915091565b6000826001600160a01b0316846001600160a01b03161480610a54575060405163d202158d60e01b81526001600160a01b038086169163d202158d91610a04919087169086906004016111e4565b60206040518083038186803b158015610a1c57600080fd5b505afa158015610a30573d6000803e3d6000fd5b505050506040513d601f19601f82011682018060405250810190610a549190610e17565b949350505050565b828054600181600116156101000203166002900490600052602060002090601f016020900481019282601f10610a9d57805160ff1916838001178555610aca565b82800160010185558215610aca579182015b82811115610aca578251825591602001919060010190610aaf565b50610ad6929150610c00565b5090565b604080516101e08101909152806000815260200160008019168152602001600081526020016000815260200160008152602001600081526020016000815260200160008019168152602001600081526020016000815260200160608152602001600080191681526020016060815260200160008152602001606081525090565b604051806101e00160405280610b6e610c1a565b8152602001610b7b610c1a565b8152602001610b88610c1a565b815260200160008152602001600081526020016000801916815260200160006001600160a01b0316815260200160006001600160a01b0316815260200160006001600160a01b031681526020016060815260200160008152602001600081526020016000815260200160008152602001600081525090565b61039791905b80821115610ad65760008155600101610c06565b604080516060810182526000808252602082018190529181019190915290565b8051610c458161134a565b92915050565b600082601f830112610c5b578081fd5b815167ffffffffffffffff811115610c71578182fd5b6020808202610c818282016112f3565b83815293508184018583018287018401881015610c9d57600080fd5b600092505b84831015610cc9578051610cb58161134a565b825260019290920191908301908301610ca2565b505050505092915050565b600082601f830112610ce4578081fd5b815167ffffffffffffffff811115610cfa578182fd5b610d0d601f8201601f19166020016112f3565b9150808252836020828501011115610d2457600080fd5b610d3581602084016020860161131a565b5092915050565b805160058110610c4557600080fd5b600060608284031215610d5c578081fd5b610d6660606112f3565b90508151610d738161134a565b81526020820151610d838161134a565b806020830152506040820151604082015292915050565b600060208284031215610dab578081fd5b8135610db68161134a565b9392505050565b600080600080600060a08688031215610dd4578081fd5b8535610ddf8161134a565b94506020860135610def8161134a565b93506040860135610dff8161134a565b94979396509394606081013594506080013592915050565b600060208284031215610e28578081fd5b81518015158114610db6578182fd5b600060208284031215610e48578081fd5b5035919050565b600080600060408486031215610e63578081fd5b83359250602084013567ffffffffffffffff80821115610e81578283fd5b81860187601f820112610e92578384fd5b8035925081831115610ea2578384fd5b876020848301011115610eb3578384fd5b949760209095019650909450505050565b600060208284031215610ed5578081fd5b815167ffffffffffffffff80821115610eec578283fd5b8184016102a08187031215610eff578384fd5b6101e09250610f0d836112f3565b610f178783610d4b565b8152610f268760608401610d4b565b6020820152610f388760c08401610d4b565b60408201526101208083015160608301526101408084015160808401526101608085015160a0850152610180610f708b828801610c3a565b60c08601526101a0610f848c828901610c3a565b60e08701526101c0610f988d828a01610c3a565b6101008801528988015189811115610fae578b8cfd5b610fba8e828b01610cd4565b878901525061020088015185880152610220880151848801526102408801518388015261026088015182880152610280880151818801525050505050508094505050505092915050565b600060208284031215611015578081fd5b815167ffffffffffffffff8082111561102c578283fd5b6101e0918401808603831315611040578384fd5b611049836112f3565b6110538783610d3c565b81526020820151602082015260408201516040820152606082015160608201526080820151608082015260a082015160a082015260c082015160c082015260e082015160e08201526101009350838201518482015261012093508382015184820152610140935083820151838111156110ca578586fd5b6110d688828501610c4b565b858301525061016093508382015184820152610180935083820151838111156110fd578586fd5b61110988828501610cd4565b85830152506101a0935083820151848201526101c093508382015183811115611130578586fd5b61113c88828501610cd4565b948201949094529695505050505050565b600080600060608486031215611161578081fd5b83519250602084015167ffffffffffffffff81111561117e578182fd5b61118a86828701610cd4565b925050604084015190509250925092565b600081518084526111b381602086016020860161131a565b601f01601f19169290920160200192915050565b6001600160a01b0391909116815260200190565b90815260200190565b918252602082015260400190565b600085825284602083015283604083015260806060830152611217608083018461119b565b9695505050505050565b9283526020830191909152604082015260600190565b600060208252610db6602083018461119b565b60208082526026908201527f4f776e61626c653a206e6577206f776e657220697320746865207a65726f206160408201526564647265737360d01b606082015260800190565b6020808252818101527f4f776e61626c653a2063616c6c6572206973206e6f7420746865206f776e6572604082015260600190565b6020808252601490820152731b995dcb5d985b1d594b5a5ccb5d1bdbcb5bdb1960621b604082015260600190565b60405181810167ffffffffffffffff8111828210171561131257600080fd5b604052919050565b60005b8381101561133557818101518382015260200161131d565b83811115611344576000848401525b50505050565b6001600160a01b038116811461135f57600080fd5b5056fe726573756c742d6e6f742d76616c6964617465642d666f722d63616c6c6261636ba2646970667358221220669f28744901fc19dd0fbcfedb4fc33c75200ecec24d911958ec60f6712cd92a64736f6c634300060b0033",
  "immutableReferences": {},
  "source": "// SPDX-License-Identifier: MIT\npragma solidity ^0.6.0;\npragma experimental ABIEncoderV2;\n\nimport \"@openzeppelin/contracts/access/Ownable.sol\";\nimport \"@iexec/solidity/contracts/ERC1154/IERC1154.sol\";\nimport \"@iexec/solidity/contracts/ERC2362/IERC2362.sol\";\nimport \"@iexec/doracle/contracts/IexecDoracle.sol\";\n\n\ncontract PriceOracle is IexecDoracle, Ownable, IOracleConsumer, IERC2362\n{\n\t// Data storage\n\tstruct TimedValue\n\t{\n\t\tbytes32 oracleCallID;\n\t\tuint256 date;\n\t\tint256  value;\n\t\tstring  details;\n\t}\n\n\tmapping(bytes32 => TimedValue) public values;\n\n\t// Event\n\tevent ValueUpdated(bytes32 indexed id, bytes32 indexed oracleCallID, uint256 date, int256 value);\n\n\tconstructor()\n\tpublic IexecDoracle(address(0))\n\t{}\n\n\tfunction updateEnv(\n\t  address _authorizedApp\n\t, address _authorizedDataset\n\t, address _authorizedWorkerpool\n\t, bytes32 _requiredtag\n\t, uint256 _requiredtrust\n\t)\n\tpublic onlyOwner\n\t{\n\t\t_iexecDoracleUpdateSettings(_authorizedApp, _authorizedDataset, _authorizedWorkerpool, _requiredtag, _requiredtrust);\n\t}\n\n\t// ERC1154 - Callback processing\n\tfunction receiveResult(bytes32 _callID, bytes calldata)\n\texternal override\n\t{\n\t\t// Parse results\n\t\t(uint256 date, string memory details, int256 value) = abi.decode(_iexecDoracleGetVerifiedResult(_callID), (uint256, string, int256));\n\n\t\t// Process results\n\t\tbytes32 id = keccak256(bytes(details));\n\t\trequire(values[id].date < date, \"new-value-is-too-old\");\n\t\tvalues[id].oracleCallID = _callID;\n\t\tvalues[id].date         = date;\n\t\tvalues[id].value        = value;\n\t\tvalues[id].details      = details;\n\n\t\temit ValueUpdated(id, _callID, date, value);\n\t}\n\n\t// ERC2362 - ADO result viewer\n\tfunction valueFor(bytes32 _id)\n\texternal override view returns (int256, uint256, uint256)\n\t{\n\t\tif (values[_id].oracleCallID == bytes32(0))\n\t\t{\n\t\t\treturn (0, 0, 404);\n\t\t}\n\t\telse\n\t\t{\n\t\t\treturn (values[_id].value, values[_id].date, 200);\n\t\t}\n\t}\n}\n",
  "sourcePath": "/home/amxx/Work/iExec/code/doracle-price-feed/contracts/PriceOracle.sol",
  "compiler": {
    "name": "solc",
    "version": "0.6.11+commit.5ef660b1.Emscripten.clang"
  },
  "schemaVersion": "3.2.2",
  "updatedAt": "2020-07-20T21:33:30.230Z",
  "networkType": "ethereum",
  "devdoc": {
    "kind": "dev",
    "methods": {
      "owner()": {
        "details": "Returns the address of the current owner."
      },
      "renounceOwnership()": {
        "details": "Leaves the contract without owner. It will not be possible to call `onlyOwner` functions anymore. Can only be called by the current owner. NOTE: Renouncing ownership will leave the contract without an owner, thereby removing any functionality that is only available to the owner."
      },
      "transferOwnership(address)": {
        "details": "Transfers ownership of the contract to a new account (`newOwner`). Can only be called by the current owner."
      }
    },
    "version": 1
  },
  "userdoc": {
    "kind": "user",
    "methods": {},
    "version": 1
  }
}